:020000040800F2
:10000000700400204501000851060008E1010008C5
:100010004D060008B90100080909000800000000A9
:100020000000000000000000000000004D07000874
:10003000BD01000800000000550600085107000837
:100040005F0100085F0100085F0100085F01000810
:100050005F0100085F0100085F0100085F01000800
:100060005F0100085F0100085F0100085F010008F0
:100070005F0100085F0100085F0100085F010008E0
:100080005F0100085F0100085F0100085F010008D0
:10009000010900085F0100085F010008C1010008B4
:1000A0005F0100085F0100085F0100085F010008B0
:1000B0005F0100085F0100085F0100085F010008A0
:1000C0005F0100085F0100085F0100085F01000890
:1000D0005F0100085F0100085F0100085F01000880
:1000E0005F0100085F0100085F0100085F01000870
:1000F0005F0100085F0100085F0100085F01000860
:100100005F0100085F0100085F0100085F0100084F
:100110005F0100085F0100085F0100085F0100083F
:100120005F0100085F0100085F0100085F0100082F
:10013000DFF80CD000F02EF80048004781110008CD
:10014000700400200648804706480047FEE7FEE7A7
:10015000FEE7FEE7FEE7FEE7FEE7FEE7FEE7FEE777
:10016000690700083101000830B50B460146002040
:100170002022012409E021FA02F59D4205D303FA69
:1001800002F5491B04FA02F52844151EA2F10102EA
:10019000F1DC30BD064C074D06E0E06840F001039D
:1001A00094E8070098471034AC42F6D3FFF7C4FF39
:1001B00080180008A0180008FEE700007047000043
:1001C00080B5202000F0F2FD002808BF80BD6F2020
:1001D00000F008F800F07EFF202000F0E1FD80BD77
:1001E000FEE7000070B540F60044C4F20104054685
:1001F0002046802100F0FEFD2046402100F0FAFD5F
:10020000322000F0D1FB2046802100F0F1FD3220A9
:1002100000F0CAFB2046402100F0EAFD284600F02D
:1002200075FB00BF2046802100F07EFE0028F9D13A
:10023000322000F0B9FB2046402100F0D9FD002615
:10024000002500BF322000F0AFFB2046402100F027
:10025000D1FD2046802100F067FE002818BF012054
:1002600040EA4505322000F09FFB2046402100F087
:10027000BFFD072E06F10106E4D3322000F094FB07
:100280002046402100F0B6FD322000F08DFB2046D4
:1002900010210322802300F0F1FD322000F084FBC6
:1002A0002046402100F0A6FD322000F07DFB2046D4
:1002B000802100F09FFD322000F076FBE8B270BD97
:1002C00070B540F60044C4F201040D4606462046CF
:1002D000802100F08FFD2046402100F08BFD322070
:1002E00000F062FB2046802100F082FD322000F009
:1002F0005BFB2046402100F07BFD304600F006FB12
:100300002046802100F010FE0028F9D1322000F0B4
:100310004BFB204610210322802300F0AFFD204636
:10032000402100F065FD284600F0F0FA20468021CB
:1003300000F0FAFD0028F9D1322000F035FB20460C
:10034000402100F055FD204610210322802300F0BB
:1003500095FD322000F028FB2046402100F04AFDA8
:10036000322000F021FB2046802100F043FD3220A6
:1003700000F01AFB70BD000010B540F2036000F001
:10038000CDFF4FF4C06000F0C9FF40F60044C4F256
:100390000104204610210322802300F06FFD204637
:1003A00010210322402300F069FD2046042103228E
:1003B000202300F063FD4FF4A06000F03FFF172002
:1003C0000221022200F008FF0120052100F014FDA7
:1003D00020200021012200F08DFC202000F0E0FC14
:1003E000202000F0D5FC6E208021FFF769FF6020FF
:1003F0004021FFF765FF6120FFF7F4FE202818BFBA
:1004000010BD68202221FFF75BFF10BD2DE9F043EE
:1004100081B00646302090460D4600F01DF91920A7
:1004200000F0B0FA8020042E38BF00EB06102843FD
:10043000C0B2802700F010F9052000F0A3FA98F868
:100440000090B9F1000F00F07F8041F20005C4F286
:10045000010511E028464FF4806100F0C9FC2846F0
:100460004FF4805100F0C4FC192000F09DFA18F8F8
:10047000019FB9F1000F67D028464FF4806100F06A
:10048000B9FC002412E000BF28464FF4006100F0E0
:10049000AFFC28464FF4805100F0AAFC28464FF4E8
:1004A000805100F0A7FC0134082C0BD027FA04F08F
:1004B00010F0FA0FE8D028464FF4006100F09AFCE3
:1004C000E7E700BF09F0F004002611E028464FF4EA
:1004D000006100F08DFC28464FF4805100F088FC4C
:1004E00028464FF4805100F085FC0136082E09D0D3
:1004F00004FA06F00006E9D528464FF4006100F042
:1005000079FCE8E74FEA0910C4B2002612E000BF08
:1005100028464FF4006100F06BFC28464FF48051F0
:1005200000F066FC28464FF4805100F063FC013671
:10053000082E8FD004FA06F00006E9D528464FF4BD
:10054000006100F057FCE8E701B0BDE8F08300006F
:1005500070B5054630200C4600F07EF8192000F0FA
:1005600011FA41F66C06C0F6000600200021324662
:10057000FFF74CFF0A2000F005FA302000F06CF87D
:10058000192000F0FFF9012000213246FFF73EFF5D
:100590000A2000F0F7F9002000212A46FFF736FF75
:1005A000052000F0EFF9012000212246FFF72EFF81
:1005B00070BD0000B0B540F2046000F0AFFE40F244
:1005C000056000F0ABFE41F20004C4F201042046D5
:1005D000102103224FF4E05300F050FC04F5806535
:1005E000284610210322012300F048FC284601215F
:1005F00000F000FC20464FF4806100F0F9FB20463B
:100600004FF4805100F0F4FB20464FF4006100F0FD
:10061000EFFB052000F0B6F9062000F01DF8C82019
:1006200000F0C2F90C2000F017F8502000F0BCF9DF
:10063000012000F011F84FF4FA6000F0B5F9302015
:1006400000F00AF81E2000F09DF9B0BDFEE70000A2
:100650007047000070470000F0B581B041F200041F
:10066000C4F20104054620464FF4806100F0C2FB4D
:100670000026802712E000BF20464FF4006100F002
:10068000B7FB20464FF4805100F0B2FB20464FF4F8
:10069000805100F0AFFB0136082E0AD027FA06F091
:1006A00010F0F80FE8D020464FF4006100F0A2FBF4
:1006B000E7E705F0F006002712E000BF20464FF400
:1006C000006100F095FB20464FF4805100F090FB54
:1006D00020464FF4805100F08DFB0137082F09D0E0
:1006E00006FA07F00006E9D520464FF4006100F055
:1006F00081FBE8E72801C5B2002611E020464FF44F
:10070000006100F075FB20464FF4805100F070FB53
:1007100020464FF4805100F06DFB0136082E09D0C1
:1007200005FA06F00006E9D520464FF4006100F016
:1007300061FBE8E720464FF4806100F059FB20465A
:100740004FF4805100F054FB01B0F0BD7047000041
:1007500040F26000C2F200000168002908BF704743
:10076000016801390160704780B582B041F2040E22
:10077000C4F2020E5EF8041C41F001014EF8041CA4
:100780005EF8041C8907FBD5DEF8001041F08001FB
:10079000CEF8001000210191019A4F2A06D800BF1F
:1007A000019A01320192019A502AF9D3DEF8002011
:1007B00042F09002CEF80020019101994F2905D80E
:1007C00001990131019101995029F9D3DEF8001006
:1007D0004FF6FF7221F00301CEF800105EF8041C02
:1007E000CFF6F66211404EF8041CDEF800100C2320
:1007F000CEF6FF031940CEF800105EF8041C4FF649
:10080000FF7C11404EF8041C5EF8041CCFF2007C03
:1008100021F480214EF8041CDEF80010002301EAC8
:100820000C01CEF800105EF8041C11404EF8041CB8
:100830004FF41F01CEF804105EF8041C4FF6FE7250
:1008400041F480314EF8041C5EF8040C013A43F187
:100850000001800301D40029F6D15EF8040C800366
:1008600001D400BFFEE7DEF800000CF54301CEF82E
:100870000000DEF80000CEF80000DEF8000040F4D2
:100880008060CEF80000DEF8000020F44030CEF8A2
:100890000000DEF8000040F44030CEF80000DEF842
:1008A00000000840CEF80000DEF8000040F00060D4
:1008B00040F42010CEF800005EF8040C40F0807088
:1008C0004EF8040C5EF8040C8001FBD5DEF8000045
:1008D00020F00300CEF80000DEF8000040F0020037
:1008E000CEF80000DEF8000000F00C000828F9D176
:1008F0004FF00060002100F0ABFC02B080BD0000B2
:1009000080B500F0CDFD80BDFEE7000070B540F67B
:10091000004405460026C4F2010416E0204680216A
:1009200000F066FA1E2000F03FF82046402100F05B
:1009300061FA322000F038F82046402100F058FAE1
:100940006D00072E06F101060BD2142000F02CF8E2
:1009500068B2B0F1FF3FE1DC2046802100F04AFAA6
:10096000E0E7322000F020F8204604210322802313
:1009700000F084FA0A2000F017F82046402100F029
:1009800039FA70BD70B140F26001C2F200014FF45B
:100990007A7202E0013808BF70470A600B68002BCA
:1009A000FCD1F7E77047000040F26001C2F200019D
:1009B000086000BF08680028FCD17047B0B500F09F
:1009C00059F800F0A5F80A20FFF7DCFF00F048F81E
:1009D0000A20FFF7D7FF012000F050F858B100249B
:1009E000FE2C1BD86420FFF7CDFF0120013400F05E
:1009F00045F80028F4D100208021002400F092F86E
:100A000041F6FE75012000F039F848B16420FFF787
:100A1000B9FFAC4204F10104F4D305E00020B0BDFD
:100A20000020002100F07EF806207F2100F07AF8F7
:100A300007207F2100F076F811205B2100F072F88A
:100A40001E200121012400F06DF82120052100F075
:100A500069F812203F2100F065F82046B0BD000083
:100A600080B541F20000C4F20100102100F0C0F98D
:100A700080BD000080B500F0A1F880BD70B543F2E4
:100A80000005C4F20105A5F52054064620461021B4
:100A900000F0AEF9760000BF2846022100F09EFC6F
:100AA0000028F9D046F08000C1B2284600F070FC62
:100AB0002846012100F092FC0028F9D02846802128
:100AC00000F08CFC0128F9D0284600F05DFC00BF46
:100AD0002846022100F082FC0028F9D02846002197
:100AE00000F056FC2846012100F078FC0028F9D0DF
:100AF0002846802100F072FC0128F9D0284600F039
:100B000043FC05462046102100F074F9E8B270BDA0
:100B100080B541F20000C4F20100102100F06AF932
:100B200080BD0000F0B581B043F20005C4F20105BC
:100B3000A5F520540E4607462046102100F058F92E
:100B40007F0000BF2846022100F048FC0028F9D0B1
:100B500007F07E01284600F01BFC00BF284601215B
:100B600000F03CFC0028F9D02846802100F036FC3B
:100B70000128F9D0284600F007FC00BF28460221D2
:100B800000F02CFC0028F9D02846314600F000FC8B
:100B90002846012100F022FC0028F9D028468021B7
:100BA00000F01CFC0128F9D0284600F0EDFB20469F
:100BB000102100F01FF901B0F0BD0000B0B588B001
:100BC00043F2000440F20260C4F2010400F0A6FB0C
:100BD00040F2046000F0A2FB40F20C6000F09EFBCB
:100BE0004FF4C06000F09AFBA4F520552846182168
:100BF0000322E02300F042F92846102103221023AB
:100C000000F03CF9A4F5005010210322102300F05D
:100C100035F9204600F0BEFB4FF4827100200191AF
:100C20004FF40071CDE9030138210290069007913D
:100C300005902846102100F0DDF801A9204600F0BB
:100C4000D3FB204600F09AFB2046022100F0C6FBB1
:100C50000028F9D02046FF2100F09AFB2046012110
:100C600000F0BCFB0028F9D02046802100F0B6FB44
:100C70000128F9D0204600F087FB08B0B0BD000085
:100C8000B0B540F2036000F049FB45F60004C4F241
:100C9000000404F5344528461C2103224FF48063E8
:100CA00000F0ECF828461C2103224FF4006300F00A
:100CB000E5F840F2167000F031FB48F2A061C0F296
:100CC00001012046002200F03BF9204600210022CD
:100CD000A023A02500F0A8F9204600F09FF92046A7
:100CE0004FF4806100F026F940F25C00C2F200008F
:100CF0000580B0BD40F2084CC4F2010C5CF8083C21
:100D0000012923EA00034CF8083C5CF8043C23EA80
:100D100000034CF8043CDCF8003023EA0003CCF874
:100D20000030DCF8043023EA0003CCF8043019D09A
:100D300021B95CF8081C01434CF8081C022A18D0A1
:100D4000012A6FEA000118D0002A18BF7047DCF8AA
:100D500000201043CCF80000DCF804000840CCF878
:100D6000040070475CF8041C01434CF8041C022A80
:100D7000E6D1DCF80010014302E0DCF8002011406D
:100D8000CCF80010DCF804100843CCF804007047DD
:100D900040F20041C4F201010A6810430860704744
:100DA00040F21441C4F201010860704740F214415E
:100DB000C4F201010968084018BF01207047000013
:100DC00040F60061CEF20001D1F88020D2071CBFAE
:100DD00009685FEAC17100D170474FF0604100BF00
:100DE0000A68002AFCD04FF060410870704700008C
:100DF00041617047016170470C2240F2080C02EA21
:100E000081030F22C4F2010C032902FA03F20BD86A
:100E1000DCF8001098409143CCF80010DCF800108A
:100E20000843CCF80000704707290BD8DCF8041001
:100E300098409143CCF80410DCF804100843CCF837
:100E4000040070470B296FEA02010BD8DCF8082078
:100E500098401140CCF80810DCF808100843CCF892
:100E600008007047DCF80C2098401140CCF80C10BA
:100E7000DCF80C100843CCF80C0070472DE9F04763
:100E8000CF0601F00F0C00F1100E00F1140A4FF024
:100E900000044FF001094FF00F084FF0000748BF62
:100EA0004CEA020C0EE000BF166008FA04F225EAD4
:100EB00002020CFA04F52A4302600137082F04F1FC
:100EC00004040CD009FA07F212EA0306F5D005680B
:100ED00028295246E8D04829E7D17246E4E7082499
:100EE00000254FF001094FF00F080FE0176008FAD6
:100EF00005F226EA02020CFA05F63243426001349A
:100F0000102C05F1040508BFBDE8F08709FA04F2CA
:100F100012EA0307F3D0466828295246E6D048294A
:100F2000E5D17246E2E700008068084018BF012062
:100F300070470000026822F480621143016070472C
:100F4000F0B581B00446022017460D4600F08EF938
:100F50004DF68361C4F21B31A0FB0112910C4FF6D8
:100F60007F12C0F2373290420A4688BF3622636849
:100F700048F2A066C0F2010623F03F03B54243EAFF
:100F80000203636007D84BF24072C0F228329042ED
:100F90001BD3362121E041F68021C0F206018D42AB
:100FA0003AD84FF49671514344F6D352C1F26202DB
:100FB000A1FB0212012101EB92112162C7B1E2698A
:100FC0001921694342F4804217E048F27F42C0F29F
:100FD0001E0290428CBF0131022121626900B0FBE8
:100FE000F1F01C34042898BF04206FF31F3010E088
:100FF000E26905EB450122F48042B0FBF1F0E261C9
:10100000010554F81C1F08BF40F0010041F40041E5
:10101000216021680843206001B0F0BD016841F003
:101020000101016070470000D0F800C06FF39F23FA
:101030002CF0020C41EA0C01016043EA02018160DC
:101040007047000070B541F6140541F2004440F2CB
:101050000560C4F20105C4F2010400F05FF9204606
:101060001021032208230826FFF708FF40F205603D
:10107000266100F053F920461021032280238026A8
:10108000FFF7FCFE40F20660666100F047F904F5E8
:1010900080601021032201230126FFF7EFFE2E605E
:1010A000FFF7EEFDFFF768F9FFF788FC0028FBD09B
:1010B00001264FF47A70C4F81064FFF763FC2E60C9
:1010C00080254FF47A702561FFF75CFC6561FFF7BE
:1010D00071FA70BD10B5044645381A2848D8DFE8C3
:1010E00000F00E161E47474747262D2F314747472A
:1010F000473346353747474747394042440041F672
:101100005300C0F60000022100F0BAFA10BD41F60B
:101110005300C0F60000012100F0B2FA10BD41F604
:101120005300C0F60000002100F0AAFA10BD41F6FD
:101130006500C0F6000000F06DFB10BD032417E051
:10114000022415E0012413E0002411E005240FE03F
:1011500004240DE041F66800C0F6000000F05AFBE0
:1011600006E0092404E0082402E0072400E0062445
:1011700041F64000C0F60000214600F081FA10BDA3
:1011800000F04CF9FFF75EFF4FF47A70FFF7FAFBBF
:1011900041F21044C4F20104082564206560FFF7A1
:1011A000F1FB03A007A12560FFF7D2F9FEE700BF1E
:1011B00020202048454C4C4F20574F524C44212072
:1011C00020200000202032303232202D20465233A1
:1011D0004E534953202000004EF60C5CCEF2000C1A
:1011E000DCF8003003F4E063A3F54073B3F5A06FBF
:1011F00001D21B0A06E040F20053C0F2FA53CCF8C9
:101200000030022301FA03FCC3F104030F21D9408B
:1012100011404EF2001241EA0C01CEF20002090127
:1012200040EA020383F8001300F01F01012303FAD0
:1012300001F11C2303EAD0008150704740F0806028
:101240004EF60C5140F0FD70CEF200010860704780
:101250004FF68072C1F6FF72114008434EF60851F6
:10126000CEF200010860BFF34F8F704710B541F216
:101270000402C4F202021368014603F00C000828BD
:1012800041F20020C0F27A0019D1136840F6001C28
:10129000DB03C0F23D0C03D513689B0358BF8446A3
:1012A00010681368C0F3834E102000EAD3507044D6
:1012B00001230F2838BF0223184400FB0CF01368E9
:1012C000D2F800C0146803290FD8C3F303130FA288
:1012D000D25C41F6380E20FA02F3C0F6000EDFE8C9
:1012E00001F01302060D184610BD002010BDCCF30E
:1012F00002201EF8000023FA00F010BDC4F3C22043
:101300001EF8000023FA00F010BD00BF000000002E
:1013100000000000010203040607080941F200036F
:1013200000F01F018009C4F202034FF0010CC25803
:101330000CFA01F11143C1507047000041F2000363
:1013400000F01F018009C4F202034FF0010CC258E3
:101350000CFA01F122EA0101C150704741F2000389
:1013600000F01F018009C4F202034FF0010CC258C3
:101370000CFA01F11143C15070470000016841F0BF
:101380004001016070470000C06880B270470000F3
:10139000C160704710B543F20001C4F201018842F8
:1013A0000FD043F60041C4F2000188420CD043F64E
:1013B0000001C4F20001884218BF10BD40F20E4483
:1013C00004E04FF4437401E040F20F442046FFF77D
:1013D000C5FF2046FFF7B2FF10BD0000806808403F
:1013E00018BF01207047000070B50268D1E902E41F
:1013F00002F4415CD1E90032D1E9045643EA0C031E
:101400001A4342EA0E02224389692A4332431143B6
:101410000160C16921F40061C16170BD40F200004A
:10142000C2F2000000684DF68361C4F21B31A0FBDC
:1014300001014FF0FF3000EB914200204EF62351A6
:10144000B0EB126FCEF2000109D14EF21003CEF2D2
:1014500000035A60F0220A70072298601A60087030
:1014600070470000F0B581B001F07F01154601EB37
:10147000410200EB8207B7F84A60D0F8B0001C4682
:101480009E42C36A88BF2646284632469847A81916
:10149000A11BF864A7F85010A7F8526001B0F0BD86
:1014A0002DE9F04F81B045F6444AC4F2000ADAF85B
:1014B0000000ADF80200DAF800005AF8041C0840F9
:1014C00020F0FF00ADF8000040F26400C2F200001E
:1014D0004468BDF90000B0F1FF3F05DCDAF8000018
:1014E0000104ADF8020023D4BDF80000C0040BD500
:1014F0006FF48050CAF80000E078A070607A18B9E4
:10150000D4F8B00040698047BDF80000000575D5EB
:101510005AF8040CC00671D4A078E179E070042078
:101520000029A07064D0D4F8B0000069804761E061
:10153000AAF1440B48F60F7840F68F790BE0D4F807
:10154000B000826A204629469047DAF8000001047C
:10155000ADF80200C8D5BDF80200BDF8022000F0C9
:101560000F054BEA85000168D20613D40906ECD5B5
:10157000016801EA0801016005EB450004EB800009
:10158000B0F850307BB3C26C20462946FFF76AFFA3
:10159000DBE700BF0904D8D5016801EA0901016051
:1015A000006800051BD4D4F8B0002946036B05EB96
:1015B000450004EB8006F06900229847718CF269BF
:1015C0000144338C8FB29F420244F261718402D293
:1015D000718B8842B3D2F26F002AB3D1B5E7002DE8
:1015E0004AD1A26FAEE7D0F88020002AAAD1ACE79A
:1015F0000320A0716FF40060CAF80000BDF800007D
:1016000080050CD56FF40070CAF8000040F26C0041
:10161000C2F20000006810B1016820468847BDF89A
:101620000000C0051BD56FF48070CAF80000A079D7
:10163000A8B101380106A07111D1617A5AF8040CE1
:1016400029B120F010004AF8040C002006E040F018
:1016500010004AF8040C0320A07101206072BDF84C
:101660000000400508D56FF48060CAF80000D4F887
:10167000B000C1692046884701B0BDE8F08F000086
:101680000FB4054B10B503A9044A029800F018F8EE
:1016900010BC5DF814FB0000C10D0008080000201C
:1016A00002E008C8121F08C1002AFAD1704770472B
:1016B000002001E001C1121F002AFBD17047000089
:1016C0002DE9FF4F89B09B460446002506E02528FA
:1016D0000BD05A460B999047641C6D1C207800284B
:1016E000F5D10DB02846BDE8F08F0027B84601229D
:1016F000474900E0074314F8013F203B02FA03F09A
:101700000842F7D120782E2819D114F8010F47F09C
:1017100004072A280ED06FF02F022078A0F13001A4
:1017200009290CD808EB880102EB410100EB010804
:10173000641CF2E70A98641C50F8048B0A90207825
:101740000028CED0642808D0692806D075281ED07D
:101750005A460B9990476D1C58E00A994FF00A09B8
:1017600001C90A91002802DA40422D2102E0390520
:1017700004D52B218DF82010012103E0F90704D0B6
:101780002021F7E78A4608AE0DE00021FAE70A9922
:101790004FF00A0901C90A91F7E74946FEF7E4FC50
:1017A000303106F8011D0028F7D1ADEB060000F13D
:1017B0002009780701D44FF00108C84502DDA8EBE5
:1017C000090000E000208046002706E008A85A46ED
:1017D000C05D0B9990476D1C7F1C5745F6DB04E0FC
:1017E00030205A460B9990476D1CB8F10001A8F1C2
:1017F0000108F5DC05E016F8010B5A460B999047F5
:101800006D1CB9F10001A9F10109F4DC641C65E764
:101810000928010010B5044601E0FFF7D1FA14F8D9
:10182000010B04490028F8D1BDE810400A20FFF759
:10183000C7BA0000080000200000000001020304F5
:1018400056616C75652073656C65637465642025ED
:10185000690A004D656E752073656C656374656417
:101860002025690A004F4B00434C520020202020C5
:1018700020202020202020202020202020200000A8
:10188000A01800080000002008000000A0160008B2
:10189000A81800080800002068040000B01600081E
:0818A00000F36F0600000000D8
:0400000508000131BD
:00000001FF
